:100000000C9434000C9449000C9449000C94490061
:100010000C9449000C9449000C9449000C9449003C
:100020000C9449000C9449000C9449000C9449002C
:100030000C9449000C9449000C9449000C9449001C
:100040000C9449000C9449000C9449000C9449000C
:100050000C9449000C9449000C9449000C944900FC
:100060000C9449000C94490011241FBECFEFD8E036
:10007000DEBFCDBF11E0A0E0B1E0E6EBF1E002C0F1
:1000800005900D92AA30B107D9F70E9493000C9405
:10009000D9000C9400001092C5008093C40088E140
:1000A0008093C10086E08093C20008959091C000C3
:1000B00095FFFCCF8093C6000895CF93DF93EC01AA
:1000C0008991811103C0DF91CF9108950E9456005C
:1000D000F7CF8091C00087FFFCCF8091C6000895C4
:1000E000DF92EF92FF920F931F93CF93DF938C01D8
:1000F000D62E7C01D0E0C0E00E9469008D1519F079
:10010000CF33D10559F4C00FD11F1882DF91CF91A1
:100110001F910F91FF90EF90DF9008952196F701C6
:1001200081937F01E9CFCF93DF93CDB7DEB7C0597D
:10013000D1090FB6F894DEBF0FBECDBF87E690E0C1
:100140000E944B006AE0CE018F5A9F4F0E947000C0
:1001500060E071E0CE0101960E94D200BE016F5AAC
:100160007F4FCE0101960E94C700CE0101960E94EA
:100170005D0087E091E00E945D002FEF83ED90E34A
:10018000215080409040E1F700C00000DBCFFB0130
:10019000DC010D900020E9F7119701900D920020ED
:1001A000E1F70895FB01DC0101900D920020E1F7D9
:0601B0000895F894FFCF52
:0A01B60048656C6C6F20000D0A0014
:00000001FF
